{
  "contractName": "FarmProducePayment",
  "abi": [
    {
      "inputs": [
        {
          "internalType": "address",
          "name": "_consumer",
          "type": "address"
        },
        {
          "internalType": "uint256",
          "name": "_price",
          "type": "uint256"
        }
      ],
      "stateMutability": "nonpayable",
      "type": "constructor"
    },
    {
      "anonymous": false,
      "inputs": [
        {
          "indexed": true,
          "internalType": "address",
          "name": "farmer",
          "type": "address"
        },
        {
          "indexed": false,
          "internalType": "uint256",
          "name": "amount",
          "type": "uint256"
        }
      ],
      "name": "PaymentReleased",
      "type": "event"
    },
    {
      "anonymous": false,
      "inputs": [
        {
          "indexed": true,
          "internalType": "address",
          "name": "consumer",
          "type": "address"
        },
        {
          "indexed": false,
          "internalType": "uint256",
          "name": "amountPaid",
          "type": "uint256"
        }
      ],
      "name": "ProduceDelivered",
      "type": "event"
    },
    {
      "inputs": [],
      "name": "consumer",
      "outputs": [
        {
          "internalType": "address",
          "name": "",
          "type": "address"
        }
      ],
      "stateMutability": "view",
      "type": "function",
      "constant": true
    },
    {
      "inputs": [],
      "name": "farmer",
      "outputs": [
        {
          "internalType": "address",
          "name": "",
          "type": "address"
        }
      ],
      "stateMutability": "view",
      "type": "function",
      "constant": true
    },
    {
      "inputs": [],
      "name": "isDelivered",
      "outputs": [
        {
          "internalType": "bool",
          "name": "",
          "type": "bool"
        }
      ],
      "stateMutability": "view",
      "type": "function",
      "constant": true
    },
    {
      "inputs": [],
      "name": "price",
      "outputs": [
        {
          "internalType": "uint256",
          "name": "",
          "type": "uint256"
        }
      ],
      "stateMutability": "view",
      "type": "function",
      "constant": true
    },
    {
      "inputs": [],
      "name": "confirmDelivery",
      "outputs": [],
      "stateMutability": "nonpayable",
      "type": "function"
    },
    {
      "inputs": [],
      "name": "payForProduce",
      "outputs": [],
      "stateMutability": "payable",
      "type": "function",
      "payable": true
    },
    {
      "inputs": [],
      "name": "contractBalance",
      "outputs": [
        {
          "internalType": "uint256",
          "name": "",
          "type": "uint256"
        }
      ],
      "stateMutability": "view",
      "type": "function",
      "constant": true
    }
  ],
  "bytecode": "0x608060405234801561001057600080fd5b50604051610a5b380380610a5b83398181016040528101906100329190610106565b336000806101000a81548173ffffffffffffffffffffffffffffffffffffffff021916908373ffffffffffffffffffffffffffffffffffffffff16021790555081600160006101000a81548173ffffffffffffffffffffffffffffffffffffffff021916908373ffffffffffffffffffffffffffffffffffffffff160217905550806002819055506000600360006101000a81548160ff02191690831515021790555050506101ac565b6000815190506100eb8161017e565b92915050565b60008151905061010081610195565b92915050565b6000806040838503121561011957600080fd5b6000610127858286016100dc565b9250506020610138858286016100f1565b9150509250929050565b600061014d82610154565b9050919050565b600073ffffffffffffffffffffffffffffffffffffffff82169050919050565b6000819050919050565b61018781610142565b811461019257600080fd5b50565b61019e81610174565b81146101a957600080fd5b50565b6108a0806101bb6000396000f3fe6080604052600436106100705760003560e01c8063a035b1fe1161004e578063a035b1fe146100e2578063b4fd72961461010d578063bddbfbac14610138578063d811fcf01461014257610070565b80635e10177b14610075578063765f744c1461008c5780638b7afe2e146100b7575b600080fd5b34801561008157600080fd5b5061008a61016d565b005b34801561009857600080fd5b506100a16102dc565b6040516100ae919061073b565b60405180910390f35b3480156100c357600080fd5b506100cc6102ef565b6040516100d991906107f6565b60405180910390f35b3480156100ee57600080fd5b506100f76102f7565b60405161010491906107f6565b60405180910390f35b34801561011957600080fd5b506101226102fd565b60405161012f9190610720565b60405180910390f35b610140610323565b005b34801561014e57600080fd5b5061015761051d565b6040516101649190610720565b60405180910390f35b600160009054906101000a900473ffffffffffffffffffffffffffffffffffffffff1673ffffffffffffffffffffffffffffffffffffffff163373ffffffffffffffffffffffffffffffffffffffff16146101fd576040517f08c379a00000000000000000000000000000000000000000000000000000000081526004016101f4906107d6565b60405180910390fd5b600360009054906101000a900460ff161561024d576040517f08c379a0000000000000000000000000000000000000000000000000000000008152600401610244906107b6565b60405180910390fd5b6001600360006101000a81548160ff021916908315150217905550600160009054906101000a900473ffffffffffffffffffffffffffffffffffffffff1673ffffffffffffffffffffffffffffffffffffffff167f54407724dc69a25c249757eca1991afda5766c02edd92d73e678935e70d494546002546040516102d291906107f6565b60405180910390a2565b600360009054906101000a900460ff1681565b600047905090565b60025481565b600160009054906101000a900473ffffffffffffffffffffffffffffffffffffffff1681565b600160009054906101000a900473ffffffffffffffffffffffffffffffffffffffff1673ffffffffffffffffffffffffffffffffffffffff163373ffffffffffffffffffffffffffffffffffffffff16146103b3576040517f08c379a00000000000000000000000000000000000000000000000000000000081526004016103aa90610796565b60405180910390fd5b60025434146103f7576040517f08c379a00000000000000000000000000000000000000000000000000000000081526004016103ee90610776565b60405180910390fd5b600360009054906101000a900460ff16610446576040517f08c379a000000000000000000000000000000000000000000000000000000000815260040161043d90610756565b60405180910390fd5b60008054906101000a900473ffffffffffffffffffffffffffffffffffffffff1673ffffffffffffffffffffffffffffffffffffffff166108fc349081150290604051600060405180830381858888f193505050501580156104ac573d6000803e3d6000fd5b5060008054906101000a900473ffffffffffffffffffffffffffffffffffffffff1673ffffffffffffffffffffffffffffffffffffffff167fdf20fd1e76bc69d672e4814fafb2c449bba3a5369d8359adf9e05e6fde87b0563460405161051391906107f6565b60405180910390a2565b60008054906101000a900473ffffffffffffffffffffffffffffffffffffffff1681565b61054a81610822565b82525050565b61055981610834565b82525050565b600061056c602883610811565b91507f50726f64756365206d7573742062652064656c697665726564206265666f726560008301527f207061796d656e740000000000000000000000000000000000000000000000006020830152604082019050919050565b60006105d2601583610811565b91507f496e636f727265637420616d6f756e742073656e7400000000000000000000006000830152602082019050919050565b6000610612601983610811565b91507f4f6e6c792074686520636f6e73756d65722063616e20706179000000000000006000830152602082019050919050565b6000610652602283610811565b91507f50726f647563652068617320616c7265616479206265656e2064656c6976657260008301527f65640000000000000000000000000000000000000000000000000000000000006020830152604082019050919050565b60006106b8602683610811565b91507f4f6e6c792074686520636f6e73756d65722063616e20636f6e6669726d20646560008301527f6c697665727900000000000000000000000000000000000000000000000000006020830152604082019050919050565b61071a81610860565b82525050565b60006020820190506107356000830184610541565b92915050565b60006020820190506107506000830184610550565b92915050565b6000602082019050818103600083015261076f8161055f565b9050919050565b6000602082019050818103600083015261078f816105c5565b9050919050565b600060208201905081810360008301526107af81610605565b9050919050565b600060208201905081810360008301526107cf81610645565b9050919050565b600060208201905081810360008301526107ef816106ab565b9050919050565b600060208201905061080b6000830184610711565b92915050565b600082825260208201905092915050565b600061082d82610840565b9050919050565b60008115159050919050565b600073ffffffffffffffffffffffffffffffffffffffff82169050919050565b600081905091905056fea2646970667358221220b436c822ec2e65e92cd055d0a1a9442509fe2fd06e581e9f76444ff37734bb6564736f6c63430008000033",
  "immutableReferences": {},
  "source": "// SPDX-License-Identifier: MIT\r\npragma solidity ^0.8.0;\r\n\r\ncontract FarmProducePayment {\r\n    address public farmer;\r\n    address public consumer;\r\n    uint public price;\r\n    bool public isDelivered;\r\n\r\n    event ProduceDelivered(address indexed consumer, uint amountPaid);\r\n    event PaymentReleased(address indexed farmer, uint amount);\r\n\r\n    constructor(address _consumer, uint _price) {\r\n        farmer = msg.sender; \r\n        consumer = _consumer;\r\n        price = _price;\r\n        isDelivered = false;\r\n    }\r\n\r\n    \r\n    function confirmDelivery() public {\r\n        require(msg.sender == consumer, \"Only the consumer can confirm delivery\");\r\n        require(!isDelivered, \"Produce has already been delivered\");\r\n\r\n        isDelivered = true;\r\n        emit ProduceDelivered(consumer, price);\r\n    }\r\n\r\n    \r\n    function payForProduce() public payable {\r\n        require(msg.sender == consumer, \"Only the consumer can pay\");\r\n        require(msg.value == price, \"Incorrect amount sent\");\r\n        require(isDelivered, \"Produce must be delivered before payment\");\r\n\r\n        \r\n        payable(farmer).transfer(msg.value);\r\n        emit PaymentReleased(farmer, msg.value);\r\n    }\r\n\r\n    // Function to check the contract balance\r\n    function contractBalance() public view returns (uint) {\r\n        return address(this).balance;\r\n    }\r\n}\r\n\r\n",
  "sourcePath": "C:\\Users\\JAI\\farm-produce-payment\\contracts\\FarmProducePayment.sol",
  "compiler": {
    "name": "solc",
    "version": "0.8.0+commit.c7dfd78e.Emscripten.clang"
  },
  "schemaVersion": "3.4.16",
  "updatedAt": "2024-10-18T17:14:39.131Z",
  "networkType": "ethereum",
  "devdoc": {
    "kind": "dev",
    "methods": {},
    "version": 1
  },
  "userdoc": {
    "kind": "user",
    "methods": {},
    "version": 1
  }
}